:020000040000FA
:1000000018270020FD020000050300000703000080
:10001000090300000B0300000D03000000000000B6
:100020000000000000000000000000000F030000BE
:10003000110300000000000013030000150300007E
:10004000170300001703000031070000170300002A
:10005000170300001703000017030000C50300008A
:10006000E10600001703000017030000170300005B
:100070001703000017030000170300001703000018
:100080001703000017030000170300001703000008
:1000900017030000170300001703000017030000F8
:1000A00017030000170300001703000017030000E8
:1000B000170300001703000000000000000000000C
:1000C00017030000170300001703000017030000C8
:1000D00017030000170300001703000017030000B8
:1000E00017030000170300001703000000000000C2
:1000F00000000000170300000000000017030000CC
:1001000000000000000000000000000000000000EF
:1001100000000000000000000000000000000000DF
:1001200000000000000000000000000000000000CF
:1001300000000000000000000000000000000000BF
:1001400000000000000000000000000000000000AF
:10015000000000000000000000000000000000009F
:10016000000000000000000000000000000000008F
:10017000000000000000000000000000000000007F
:10018000000000000000000000000000000000006F
:10019000000000000000000000000000000000005F
:1001A000000000000000000000000000000000004F
:1001B000000000000000000000000000000000003F
:1001C000000000000000000000000000000000002F
:1001D000000000000000000000000000000000001F
:1001E000000000000000000000000000000000000F
:1001F00000000000000000000000000000000000FF
:10020000DFF810D000F0CCF800480047250C0000C3
:10021000AFF300801827002030B4044654E8000FE4
:100220000D4644E80053002BF8D1156030BC7047F0
:1002300030B4044654E8000F40EA010544E8005396
:10024000002BF7D1156030BC704730B4044654E839
:10025000000F00EA010544E80053002BF7D11560B8
:1002600030BC704730B4044654E8000F80EA010502
:1002700044E80053002BF7D1156030BC704730B410
:10028000044654E8000F00EB010544E80053002B3E
:10029000F7D1156030BC704730B4044654E8000F05
:1002A000A0EB010544E80053002BF7D1156030BCEA
:1002B000704770B404464FF0000054E8006F0D68BA
:1002C000AE4207BF44E80023012044E800630E600B
:1002D000002B1CBF0020F0E770BC704730B4044610
:1002E00054E8000F88422CBF451A054644E80053E5
:1002F000002BF5D1156030BC7047000006488047E0
:1003000006480047FEE7FEE7FEE7FEE7FEE7FEE7FA
:10031000FEE7FEE7FEE7FEE70D0500000102000034
:10032000202A04DB203A21FA02F00021704721FA4A
:1003300002F3D040C2F120029140084319467047B1
:1003400000487047A42B000040EA01039B0703D03C
:1003500009E008C9121F08C0042AFAD203E011F804
:10036000013B00F8013B521EF9D27047D2B201E0C6
:1003700000F8012B491EFBD270470022F6E710B5AA
:1003800013460A4604461946FFF7F0FF204610BD03
:10039000421C10F8011B0029FBD1801A7047000095
:1003A000064C074D06E0E06840F0010394E80700C2
:1003B00098471034AC42F6D3FFF726FF5C2C0000C0
:1003C0007C2C00002DE9FE434FF48278404601F07A
:1003D000BBFA4C4F00254C4C012600B3404601F0BF
:1003E000BBFA94F82E0010B194F82F10D1B18DF80B
:1003F0000050616801912189ADF80810E26832B1BE
:10040000218B618362602181E56010B102E0257477
:1004100000E03E6021686846884784F82F5094F8D1
:100420002E0060B34FF48077384601F08DFA30B378
:10043000384601F091FA628B94F82D108A420AD95D
:10044000A2EB010080B260832289A2EB0000626807
:1004500002EB400005E007D1E06828B184F82F6086
:10046000658301F05FFA04E08A4202D184F82F60CC
:100470006583404601F070FA2248001D06604FF483
:100480008877384601F060FA48B1384601F064FADE
:10049000257402208DF800002168684688474FF4D3
:1004A0008A77384601F050FA28B1384601F054FAFC
:1004B0002574BDE8FE834FF000484FF48C796769DE
:1004C0001DE000BFB7FA87F028FA00F109EB8005BC
:1004D0008F43284601F038FA88B1284601F03CFAEB
:1004E000A5F58C75E8088DF8040045F38000401CE4
:1004F0008DF800608DF80500216868468847002F58
:10050000E0D1D6E700700040C800002070B54FF081
:1005100080520124D2E94C100023082906D1CD06CF
:10052000C5F80C31C5F810315E4D2B60082955D146
:100530005D4D2D685D4E35605B4D2D1D2D68361D62
:100540003560594D08352D68361D3560564D0C35D2
:100550002D68361D3560544D10352D68361D3560BB
:10056000514D14352D68361D35604F4D18352D68A9
:100570004E4E203635604C4D1C352D68361D35608D
:10058000494D20352D68361D3560474D24352D6881
:10059000361D3560444D28352D68361D3560424D79
:1005A0002C352D68361D35603F4D30352D683F4E5A
:1005B000403635603C4D34352D68361D35603A4D3A
:1005C00038352D68361D3560374D3C352D68361D64
:1005D0003560354D40352D68361D3560082904D10C
:1005E000050002D1334E324D3560082904D1050093
:1005F00002D1314EFB253560082908D1050006D10E
:1006000092F858622D4A156866F3030515600829AB
:1006100004D1020002D12A4D8A012A60082906D19C
:1006200028480168C90702D06FF00101016026481F
:10063000016841F470010160BFF34F8FBFF36F8F0A
:100640004FF01021D1F80002002803DBD1F804029A
:10065000002822DA1D4A14601D480468002CFCD0D2
:100660001224C1F800420568002DFCD0C1F80442F4
:1006700001680029FCD0136001680029FCD0BFF399
:100680004F8F11487C380168124A01F4E061114330
:100690000160BFF34F8F00BFFDE710490E480860AF
:1006A00070BD0000380500400404001020C5004063
:1006B000488103008C56004018F50040E40E0040CD
:1006C000409602400004004088ED00E004E501404F
:1006D00000E401400400FA050090D003B0000020BF
:1006E0002DE9F047104E042700244FF4A0784FF472
:1006F000803900BF08EB840509FA04F0715961B133
:10070000D6F80413014208D02946304601F045F9D5
:100710000648D0E9002128469047641CE4B2BC4258
:10072000E8D3BDE8F087000000800040F80000201A
:1007300001480068004700002800002002E008C8C7
:10074000121F08C1002AFAD170477047002001E04B
:1007500001C1121F002AFBD17047000010B572B60C
:1007600000F0C6FF00F01CFE0028FBD11148124922
:10077000401AC408012000EB044010A100F028FF3B
:1007800011480068C00700D000BE022000EB044002
:100790000EA100F01DFFBFF34F8F0B48E438016836
:1007A0000E4A01F4E06111430160BFF34F8F00BFB7
:1007B000FDE70000C42C00008C2C00004661746131
:1007C0006C206572726F7200F0ED00E05379737403
:1007D000656D207265736574000000000400FA0501
:1007E0000EB500210091CDE901106A4644F20100E6
:1007F000FFF7B4FF0EBD00F003B800F009B8000029
:1008000072B602480168491C016070473000002040
:1008100003490868401E086000D162B670470000B6
:100820003000002070B5054608680C46411C04D015
:1008300000F0C6FC206800F093FC6068411C02D008
:10084000002100F07BFC2968A069C1F82405607DC7
:10085000227D29681043C1F86C05D4E9001228688C
:10086000C0F81425C0F80C15207D012814D1A0680B
:10087000411C02D0002100F061FCE068411C04D062
:1008800000F09EFCE06800F06BFCD4E902122868DE
:10089000C0F80825C0F8101570BD70B50546086889
:1008A0000C46411C04D000F095FC206800F062FC6E
:1008B0006068411C02D0002100F049FC2968A06951
:1008C000C1F82405607D217D2A680843C2F86C05C3
:1008D000D4E900122868C0F80C15C0F81425207D52
:1008E000012814D1A068411C02D0002100F02FFC87
:1008F000E068411C04D000F06DFCE06800F03AFCB8
:10090000D4E902122868C0F80825C0F8101570BD97
:100910002DE9F0470546861C91460F464FF0010A27
:100920000020FFF768FF1B4C04F21C486068386029
:10093000D4E90101184F401A3968081A0EE0012164
:10094000404600F009FA00F01BF90146404600F06D
:1009500003FAD4E90101401A3968081A401C86429A
:10096000EDD8B9F1000F03D0052065F3891002E03E
:10097000062065F39F5061683A68114004EB8101DD
:10098000C8606068304460600020FFF736FF504662
:10099000BDE8F087F80200205C00002070B50D462D
:1009A00004460A2902D10D21FFF7F8FFA06822684A
:1009B000411CA1601554D4E90101814204D32046B1
:1009C000BDE8704000F07DBA70BD00000448816849
:1009D0004068814201D1012070470020704700002B
:1009E000F802002010B50021024800F0C0F980F3A1
:1009F000100010BD140700202DE9FC5F0E00834697
:100A0000DDE90C47C6F1000098469246814600D4C5
:100A10000846012503E000BF90FBFAF06D1C50452D
:100A2000FADAA84500D9454624B1002E01DB780743
:100A300000D5641EB80702D5B8F1000F0AD0F80738
:100A400008D13CB1A54205D220215846641EFFF7CB
:100A5000A5FFF6E7002E02DA4E462D2102E07807C8
:100A600003D52B215846FFF799FF07F00300022812
:100A70000BD1B8F1000F08D13CB1A54205D230210D
:100A80005846641EFFF78AFFF6E7CDE90047434664
:100A900052463146584601F09FFFBDE8FC9F0000DA
:100AA00070B50D46044600684FF4887100F091FF60
:100AB0004FF49071206800F08CFF4FF49271206821
:100AC00000F087FF4FF4A271206800F082FF4FF41E
:100AD000AC71206800F07DFF20681249C0F8041353
:100AE0002068690740F30730090E002804DB00F195
:100AF000E02080F8001405E000F00F0000F1E02095
:100B000080F8141D206840F30730002809DB00F04E
:100B10001F02012191404009800000F1E020C0F84F
:100B2000001170BD100342000246002012685307F6
:100B300013D502F00300012802D002280CD105E0F1
:100B4000C2F383100B68801C184404E00223086879
:100B500003EB92521044086001207047012181404C
:100B600003484068014201D00120704700207047CF
:100B70002000002001218140080300D0012070479F
:100B80002DE9FF410026244800F0E3F82248001F29
:100B9000074600F0DEF8214C2149A06800900D685E
:100BA00000E000986946284004EB80000C30FFF715
:100BB000BBFF0028F5D101AA009901EA050304EB67
:100BC0008303491CDB6842F82030401C0091022856
:100BD000F2D3019800F0030001280BD0022810D1B5
:100BE0000198032101EB90500099BDF80A6001EBD8
:100BF000900005E00198BDF80A60C0F38310084436
:100C00000090384600F0A2F808B10098A06004B047
:100C10003046BDE8F081000010070020F8020020F7
:100C20005C0000200021084600F036FD08B1FFF707
:100C3000D7FD00F0A7FB00F039FE08B1FFF7D0FDAB
:100C400001F030FC01F068FC01F058FC084809494B
:100C5000401AC008032101EB004007A100F0B8FCD6
:100C600000F038FE00F09CFB0028FBD1F8E7000004
:100C7000C42C00008C2C00005341414443204841C7
:100C80004C2073696D706C65206578616D706C6562
:100C900020737461727465642E0000002DE9F047C2
:100CA000C5881E1DB6FBF5F78946B6FBF5F104466F
:100CB00005FB176C407916686843DDF820A0F7182B
:100CC000001F874200D9C61A166001E02468491E39
:100CD0000029FBD1A5EB0C078846B74216D818E0CF
:100CE00004EB0C00001D09EB0803BAF1000F3A46B3
:100CF00002D00146184600E01946FFF725FB24689C
:100D0000F61B4FF0000CB844B54201D9374600E05D
:100D10002F46002EE4D1BDE8F087000030B5024632
:100D200051B100F0CDFC0021074C08E034F821302F
:100D30001568AB4202D11160002030BD491C8142D0
:100D4000F4D3052030BD000000000000002100F0B9
:100D500009B8012100F010B808B56A46FFF78FFA0C
:100D6000009808BD08B56A46FFF76FFA08BD08B5D8
:100D70006A46FFF751FA08BD08B56A46FFF758FA08
:100D8000009808BD08B56A46FFF786FA009808BDC6
:100D900070B5044600252846FFF72DFD21686268DE
:100DA000086890420ED9401E08600178238AE268E4
:100DB00001FB0325227A2168101AC0B20A79824207
:100DC00000D208710020FFF718FD284670BD70B5ED
:100DD00005460C460020FFF70EFDE868298A201A18
:100DE000B0FBF1F12A681068431C13600170BDE884
:100DF00070400020FFF701BD10B530B1017A4268A4
:100E00000368891AC9B21A6006E00E2010BD036893
:100E10001A68541C1C601170491EC9B2F7D20068D0
:100E200000210171084610BD0448017809B18520F0
:100E30007047012101700020704700000800002069
:100E4000F0B505460478154889B0164640F82420C8
:100E5000124A08690832A2F10C0742F82400487FC0
:100E6000385520226846FFF76FFA04942878385CDA
:100E700048B10EB10A4A00E000226946281D01F07F
:100E80000FF909B0F0BD0EB1064A00E00022694634
:100E900005F10C0000F0CEFFF3E700001000002089
:100EA00095280000DD2600000FB408B5039900293D
:100EB00004D004AA00926A4600F00FF801B05DF871
:100EC00014FB10B582680446002A05D0D4E9040357
:100ED000216898470020A06010BD2DE9FC4791468D
:100EE0000C00804676D014F8011B39B125290ED0AC
:100EF0004046FFF753FD20780028F4D198F80C0005
:100F0000002867D04046BDE8FC47FFF7DABF002065
:100F1000012221782B291BD02D2902D0302908D17C
:100F200002E040F0010001E040F00200641C002AF1
:100F3000EFD100252A290ED02178A1F130020A2A0A
:100F400011D205EB850201EB4205641C303DF1E74F
:100F500040F00400EAE7D9F800100B1DC9F8003092
:100F60000968641C0D44217800232E290BD114F844
:100F7000011FA1F130020A2A05D203EB830201EB23
:100F80004203303BF3E76C290DD068290BD0692967
:100F900021D00BDC252918D0582931D063290ED057
:100FA000642915D117E014F8011FECE7702969D006
:100FB000732932D075291BD0782909D120E0D9F8BE
:100FC0000000011DC9F8001001784046FFF7E6FC5B
:100FD000641C90E76CE0D9F800100A1DC9F80020E5
:100FE0000968CDE900500A224046FFF705FDEFE70A
:100FF000D9F800100A1DC9F8002009680A2206E085
:10100000D9F800100A1DC9F8002009681022CDE99E
:101010000050404601F0E0FCDAE7D9F80010002764
:101020000A1DC9F800200E68C00705D112E040462D
:10103000761C7F1CFFF7B2FC31780029F7D104E061
:10104000202140466D1EFFF7A9FCBD42C0D9002DEE
:10105000F6D1BDE74EB13046FFF79AF9074604E0F6
:10106000202140466D1EFFF799FCBD4206D9002D98
:10107000F6D103E04046761CFFF790FC317800295A
:10108000F8D1A5E7D9F80000011DC9F800100568DE
:1010900030214046FFF782FC78214046FFF77EFC76
:1010A00008200021CDE90001034610222946B0E7BF
:1010B000BDE8FC872DE9FF411C46DDE90A781546AD
:1010C0000E46684600F060F846EA450141EA8401B0
:1010D00041EA072242EA0841009A00EB8200C0F888
:1010E0000017BDE8FF812DE9FF411C46DDE90A78C4
:1010F00015460E46684600F055F846EA450141EAB5
:10110000840141EA072242EA0841009A00EB82008A
:10111000C0F80017BDE8FF811CB5002100910B4607
:1011200001220191FFF7C6FF1CBD1CB500210091F3
:101130000B4601220191FFF7D6FF1CBD1CB5002212
:101140000B46009211460192FFF7B4FF1CBD1CB57F
:1011500000220B46009211460192FFF7C4FF1CBD0E
:101160001CB5002100910B46012201911146FFF7A9
:10117000A1FF1CBD1CB5002100910B46012201916D
:101180001146FFF7B0FF1CBD0168202902D24FF0C5
:10119000A040704701F01F01016001487047000046
:1011A000000300500168202902D24FF0A040704790
:1011B00001F01F010160014870470000000300506A
:1011C00001B56846FFF7E0FF009A01219140C0F8A1
:1011D000081508BD01B56846FFF7E4FF009A012134
:1011E0009140C0F8081508BD30B5154A01460020E9
:1011F000D2F8104423460AE0DB681D79854205D108
:10120000401C0A28F6DB4FF0FF3030BD1B68002B76
:10121000F2D1431CF9D0CB681871D2F8103443B125
:10122000DB68CC681B682360D2F81024D268116098
:1012300030BDC2F81014C96800220A6030BD000039
:10124000F8020020F0B595B01C4615460E4608463B
:101250001A9F00F005FB182109A8FFF78EF80E97DA
:10126000CDE909540023082203A9304600F00DFB04
:1012700005980690BDF81000ADF81C00BDF81200EE
:10128000ADF81E0000208DF821000399082501F01B
:101290000300012802D0022816D02FE0C1F3C200BB
:1012A000C1F383178C0A8DF82000BA002B460FA9D2
:1012B000304600F0EAFA09A8009006AB3A460FA9BA
:1012C000204600F029FA19E0C1F3C2008C0D8DF818
:1012D0002000082C01D2274600E008272B463A467A
:1012E0000FA9304600F0D1FA3D44E41B09AB06AA31
:1012F00039460FA800F078F9002CEAD1304600F00A
:10130000B5FA15B0F0BD7047012001F005BA000034
:10131000084810B50178084A515C19B1001D00F069
:1013200059FF02E00C3000F053FEBDE810400020F1
:1013300001F0F2B9400000200C00002008B5034A7B
:1013400000924023024AFFF77DFF08BDB12500004F
:10135000600100200A4A012902EBC00007D00229DF
:1013600007D0032907D0042907D0002070470220A6
:10137000704704207047007970474079704700003B
:101380008C2C000010B5FFF7BFFF04210348FFF7C6
:101390002BFF02490120C968487110BD7C2C000058
:1013A0002DE9FF47FFF712FB18B1002004B0BDE89C
:1013B000F0877D4C0020C4F81804BFF34F8F7B49A1
:1013C000A06800900D684FF00008284004EB8000F2
:1013D0000CE000BFD4F8180470B96168009881422D
:1013E00001D8A160E1E7284004EB80000C30694699
:1013F000FFF79AFB0028EDD1002001AA009901EA2D
:10140000050304EB8303491CDB6842F82030401CD1
:1014100000910228F2D3019800F00301022902D0C2
:1014200001294DD0A5E0810D50228946B2EB905F95
:1014300000D850210E4666F39F50019008315C4859
:1014400000F0C5F9070077D000F00AFA43460822F9
:1014500001A9384600F021FA009908F1080A29404C
:10146000681A8000001D864223D94F4D0C3530B1DB
:10147000C2B204EB8101301A90460C3104E02946D7
:10148000F2B2002590462846C6B25346384600F0D0
:1014900004FA0AEB08032DB1324629464FEA070049
:1014A00000F0FBF9009909F1030001EB90000090B6
:1014B00039E004EB81015346324638460C31EFE700
:1014C000C0F38311062900D3062161F3891001902E
:1014D000C0F38310801C8100354800F078F90700C4
:1014E00047D000F0BDF94346082201A9384600F074
:1014F000D4F908F1080800260FE00098434600EAF6
:101500000501401C04EB81010090042238460C3197
:1015100000F0C3F908F10408761C0198C0F38310A9
:10152000B042EAD847B1D4F81054D4F8180478B1CE
:10153000384600F09BF931E01BE0E868407901286B
:1015400004D12A682846394612689047E868056839
:10155000002DF2D1384600F089F90020FFF74BF951
:10156000D4F8180408B90098A0600020FFF745F9E6
:1015700014E0D4F8104405E02168204689688847C3
:10158000E0680468002CF7D10A480B49401AC008EB
:10159000022101EB004009A100F01AF8FFF716FA4A
:1015A00080F0010002E70000F80200205C0000204B
:1015B000CC2C0000C42C00008C2C00004261636B1A
:1015C000656E647320666C75736865640000000066
:1015D00000231A4601F00CB808B5012300926A46B0
:1015E00001F006F808BD00002DE9F0470E468046E0
:1015F0001C469246082940D894F80C90002020738D
:101600001946104600F088FE0025B54206D218F8AB
:1016100005201BA12046FFF747FC03E01AA1204646
:10162000FFF742FC6D1C082DEFD318A12046FFF7F1
:101630003BFC0025B54212D218F805707E2F08D861
:10164000FEF77EFE0068C05D10F03E0F01D03A4606
:1016500000E02E220EA12046FFF726FC03E00DA19C
:101660002046FFF721FC6D1C082DE3D30122214603
:10167000504600F033FE84F80C90BDE8F08700007F
:101680002025303278000000202020007C0000005F
:101690002563000020000000064910B500200870F6
:1016A000054800F0E1F8002803D1044800F02CF9C7
:1016B000002010BDF8020020CC2C0000142B0000EC
:1016C00002480349401AC00870470000CC2C0000B3
:1016D0008C2C000013B56846FFF720FB08B10020F2
:1016E0001CBD0248009950F831001CBD8C2C000034
:1016F00070B508480125D0F81044057007E0E0688F
:1017000045712168204649688847E0680468002CD4
:10171000F5D170BDF80200202DE9FF4781460C9DF0
:1017200000200C462F7B28739846164629461846FB
:1017300000F0F2FD072E42D2DFE806F004090F1692
:101740001F2A360049462846FFF7AEFB37E04946D8
:1017500028462268FFF7A8FB31E0D4E90023494678
:101760002846FFF7A1FB2AE0A0680090D4E90023F7
:1017700049462846FFF798FB21E0D4E90201CDE96C
:101780000001D4E9002349462846FFF78DFB16E007
:1017900004F1080007C88DE80700D4E90023494692
:1017A0002846FFF781FB0AE004F108000FC88DE826
:1017B0000F00D4E9002349462846FFF775FB0022B5
:1017C0002946404600F08AFD2F73BDE8FF872DE9CA
:1017D000F041058A80462D1F4819C01CB0FBF5F06A
:1017E000C6B24046FFF7D4FA041E19D0002020717B
:1017F00001206071E58000272546761EC4F8008030
:101800000BE04046FFF7C4FA60B16179491C617191
:10181000286005467F1CC0F80080B742F1D32046FF
:10182000BDE8F081204600F002F80020F8E72DE93D
:10183000F041457901466B1E002201E00968521C07
:101840009A42FBD30F680146002605E038460C6833
:10185000FFF7BDFA2146761CAE42F7D3BDE8F08112
:101860000121001DFFF778BAFFF7C6BA10B504468C
:101870000121001DFFF786FA10F0FF0F04D120466A
:10188000BDE81040FFF7D3BF10BD1CB50192012287
:10189000009201AAFFF702FA1CBD1CB501920022BA
:1018A000009201AAFFF7FAF91CBD0000064910B525
:1018B00000204870091D0860BFF35F8F034904488A
:1018C00000F054F8002010BD34000020DC2A000095
:1018D0005401002010B50020FEF78DFFF1EE100A34
:1018E00020F09F00E1EE100ABFF35F8F0549402012
:1018F000C1F880020020FEF780FF20BF40BF20BF5C
:1019000010BD000004E000E0826800219160826860
:101910001161826851618268D1608268516080681B
:1019200001607047024A1060101D0160704700009E
:101930002C760040030103481844C0F81425C0F871
:10194000101570470070004002494058002800D030
:101950000120704700700040034908B50844002288
:1019600002600068009008BD0070004001600968D6
:101970004160AFF3008010B5D0E90021536899426F
:1019800001D1002104E0D1E90034A34202D019467C
:10199000816010BD08314160F0E708B50022425077
:1019A0004058009008BD4058002800D001207047E2
:1019B00008B5002242504058009008BDD0F80403FA
:1019C000084000D0012070474058002800D0012076
:1019D000704708B5002242504058009008BD0121D0
:1019E000B1EB507F01D1012070470020704700000B
:1019F0002DE9F0470427144E814600244FF00108DA
:101A00000020FEF7F8FE08FA04F5354203D0204620
:101A1000FFF7A4F858B10020FEF7EFFE27B104F15C
:101A20000104AE43E4B2EBD13846BDE8F087074984
:101A300008FA04F000274A681043486089F800401B
:101A40003846FEF7DAFEEFE7FFFF0F002000002028
:101A50002DE9F04114460D00074612D08CB1002646
:101A6000FFF788F878B13846FFF778F868B108488A
:101A700000EBC700C0F81055C0F814453046BDE86B
:101A8000F0810E20FBE70726F8E70826F6E70000BE
:101A900000F0014070B5044601260025A640FFF77E
:101AA00069F818B12046FFF759F818B102480660E6
:101AB000284670BD0825FBE704F5014070B50D46CA
:101AC00000F076FC04000FD00020FEF794FE207991
:101AD00020B10020FEF791FE112070BD012025608D
:101AE00020710020FEF789FE002070BD10B500F0C7
:101AF0005FFC002802D000210160017110BD0000D0
:101B00002DE9F041254C064612200D46C4F8080385
:101B10002348017C022918D0027C01464FF48078CA
:101B200091F82E10012A12D00222C4F804230127B2
:101B30000774466005810022C26021B3458390F896
:101B40002D103046FFF7EEFE25E0122002E0C268BD
:101B50002AB10220C4F804031120BDE8F081C66058
:101B6000058361B947463846FFF7EEFE0028FAD0F4
:101B70003846FFF7F1FE29463046FFF7D3FE022034
:101B8000C4F8040307E029463046FFF7CBFE404681
:101B9000FFF7E2FE27600020DFE700000070004052
:101BA000C8000020204A10B5137C0BB1112010BDD5
:101BB00002EB40031C7F1CB912F82D4F641C1470FB
:101BC000CA791A770A7A5A770A784B78302402F061
:101BD000030204EA03131A438B784FF4E06404EA27
:101BE00003231A43CB784FF4805404EA03331A4397
:101BF0000B794FF4E02404EA03431A434B794FF482
:101C0000801404EA03531A438B79240104EA036322
:101C1000064C1A4304EB0013C3F818250A7AC97955
:101C2000FFF788FE002010BDC800002000700040B3
:101C30002DE9F0411F4C054694F82C0010B1082006
:101C4000BDE8F08144F8101B1B4928780860091D85
:101C500068780860E878A07701272777002020704F
:101C600060776060154EE0776FF00040C6F80803BB
:101C70004FF48270FFF770FEB015FFF76DFE4FF462
:101C80008A70FFF769FEA8780D49400181F80004C9
:101C90008020C91FC1F800010220C6F80403A07FFC
:101CA00010B10120C6F804030348F0380760002093
:101CB000C6E70000C8000020F0750040007000403A
:101CC00007E000E0044890F82E0008B1002000E092
:101CD0000420024908447047C800002000700040FA
:101CE0002DE9F04106460D464FF480340068174652
:101CF000AC404BB14FF4A07101EB8501FFF74DFEF5
:101D00003068C0F8044301E0C0F80843306800EBD5
:101D10008500C0F84075BDE8F0810000016801222F
:101D20000A600079034A00EB400002EB80000221C8
:101D300001727047F8000020F0B40468049E40F27D
:101D40000115D4F800728D40AF43C4F800720468E6
:101D5000D4F800521D43C4F800523346F0BCFFF7DC
:101D6000BFBF00002DE9F04104460E4600792C4922
:101D700000EB400001EB8007387A10B10820BDE885
:101D8000F0813A60706800254FF4A078786006E032
:101D900008EB85012068FFF700FE6D1CEDB260794D
:101DA000A842F5D82068F17840F3073000284FEAC0
:101DB000411104DB00F1E02080F8001405E000F0A0
:101DC0000F0000F1E02080F8141D2068012140F38D
:101DD0000730002809DB00F01F0201FA02F2400977
:101DE000800000F1E020C0F8002120687278D0F86F
:101DF000043562F30103C0F804352068B278D0F8E6
:101E0000083562F30103C0F8083520683278D0F84D
:101E1000103562F30303C0F8103539720020AEE7C5
:101E2000F80000200149024800F09EBC0401002097
:101E3000002000402DE9F0410546007916460F4686
:101E400000EB40012D4A01EBC00102EB810494F844
:101E50002A1011B10820BDE8F081294951F820105D
:101E60002868FFF72BFE08B11120F4E73946284611
:101E7000FEF7D8FC66603869206030004FF001063C
:101E80002FD03F7F4FF48E712868FFF791FD4FF4FC
:101E9000A2712868FFF78CFD28681A49C0F804135E
:101EA00028684FEA471140F30730002804DB00F1AF
:101EB000E02080F8001405E000F00F0000F1E020C1
:101EC00080F8141D286840F30730002809DB00F073
:101ED0001F0106FA01F14009800000F1E020C0F87E
:101EE000001128680421C0F800150020A061E061FD
:101EF00084F8290044F8140FA675ACE7040100200B
:101F0000AC2A0000800002002DE9F05F0546007950
:101F10000B4600EB400101EBC000244901EB8004BB
:101F2000284600F045F810B11120BDE8F09F62612D
:101F30004FF00009C4F82090A36084F828904FF473
:101F40008E784E4641462868FFF732FD28684FF0EC
:101F5000010AC0F808A02146286800F094FB6068D8
:101F600008BBD5F800B067690FE000BF94F82800FF
:101F700008B10F2615E041465846FFF714FD00282A
:101F8000F4D02146584600F07EFB206AB842F2D3D6
:101F9000574641462868FFF706FD0028F9D0286813
:101FA000C760C4F814903046BFE700000401002069
:101FB000007900EB400101EBC000044901EB800017
:101FC0004069002800D00120704700000401002073
:101FD0002DE9F047044600794FF0000900EB40017D
:101FE00001EBC000284901EB80072068C0F800958C
:101FF0007868B0B120682549C0F80813206840F31C
:10200000073000280DDB00F01F020121914040093C
:10201000800000F1E020C0F88011BFF34F8FBFF3C4
:102020006F8F2068D0F80C25D0F81485D0F808659B
:10203000D0F810554FF0FF31C0F81415C0F80C154A
:102040002068C0F80815C0F81015501C02D01046C2
:10205000FFF762F8B8F1FF3F02D04046FFF75CF8A7
:10206000681C02D02846FFF757F8701C02D0304693
:10207000FFF752F82068FFF739FD87F82A90C7F874
:102080000490BDE8F08700000401002084020200F3
:102090000149024800F016BC300100200020004039
:1020A0002DE9F0410546164600790F46154A00EB2A
:1020B000C00102EB810494F8201011B10820BDE8A2
:1020C000F081114951F820102868FFF7F7FC08B19A
:1020D0001120F4E739462846FEF7DFFB66603869D1
:1020E00020601EB1397F2846FEF7DAFC28680821F7
:1020F000C0F800150020A061E0616061012184F852
:102100002010DCE730010020B02A00002DE9F04764
:1021100004460E460079274900EBC00001EB80051C
:1021200017463046FFF75BFC30B1204600F044F81C
:1021300020B11120BDE8F0871020FBE76F61AE6091
:102140004FF490774FF0000839462068FFF741FCC4
:102150004FF4AC7631462068FFF73BFC2068AA6854
:102160006969C0F84425C0F8481520684FF0010996
:10217000C0F808906868D0B9BA4651462068FFF7A1
:1021800023FC074631462068FFF71EFC0743F4D0C6
:1021900010B14FF00F0808E02068C0F80C903146ED
:1021A0002068FFF711FC0028F9D000206861404644
:1021B000C0E70000300100200079054900EBC000B5
:1021C00001EB80004069002800D00120704700002A
:1021D000300100202DE9F047064600793D4900EB2B
:1021E000C00001EB8005346868680127A8B13A494E
:1021F000C4F80813306840F3073000280DDB00F006
:102200001F0107FA01F14009800000F1E020C0F849
:102210008011BFF34F8FBFF36F8FD4F8000220F00F
:102220002000C4F80002A8694FF4A27820B141460A
:102230002046FFF7CEFB67604FF4AC794946204655
:10224000FFF7C7FBE760474649462046FFF7BCFB60
:102250000028F9D0A86928B139462046FFF7B4FB19
:102260000028F1D04FF0000AC4F800A53068D0F87B
:102270000C25D0F81495D0F80885D0F810754FF0DB
:10228000FF31C0F80C15C0F814153068C0F80815F7
:10229000C0F81015501C02D01046FEF746FFB9F1E9
:1022A000FF3F02D04846FEF740FF781C02D0384678
:1022B000FEF73BFFB8F1FF3F02D04046FEF735FF87
:1022C0002046FFF713FC85F820A0C5F804A0BDE860
:1022D000F0870000300100201003420010B50C46CA
:1022E000017A052908D0407A38B1084808A1026867
:1022F0002046FEF7D9FD00E01AB106A12046FEF700
:10230000D3FD2046BDE81040FEF7DBBD8C00002069
:10231000257300000D0A000038B5C3880D46044639
:1023200033B114A0009015A216A12846FEF7BCFDFB
:10233000217A05291CD0607A48B1A088FFF70AF8F5
:10234000164951F8202016A12846FEF7ADFDA088B9
:102350000021FFF7BFF903461049207A143951F8DC
:10236000202001B02846BDE830400EA1FEF79CBDFC
:1023700038BD00001B5B306D000000001B5B313B73
:1023800033316D0025734C6F67732064726F70700A
:102390006564202825642925730D0A008C0000201F
:1023A000257300003C25733E2025733A2000000071
:1023B0000349884201D1034870470020704700005C
:1023C000002000402800002070B5054688690C46B2
:1023D00000284FF4847128460AD0FFF7E9FAD5F8AF
:1023E0001805626AE1688854606A401C606270BDCA
:1023F000FFF7DEFAD5F8180570BD1FB501238DF87B
:102400000030CDE90121D0E90012684690471FBD98
:102410001FB501238DF80030CDE90121D0E900126C
:10242000684690471FBD00002DE9F0410646007840
:10243000002821D105217068FFF762FB08B1FEF783
:10244000CFF90E480E490F4F401AC108032000EB88
:10245000014005460CA17A68FFF7BEF800247068B9
:102460000FA130F914202846FFF7B6F8641C052C9C
:10247000F5DB7868401C7860BDE8F081C42C000072
:102480008C2C000000000020414443206576656EDE
:1024900074206E756D6265723A202564000000003C
:1024A000256400000EB5124A07CA8DE807001048DF
:1024B00010491438FFF7BCFB08B1FEF791F96946E3
:1024C0000020FFF76FFB08B1FEF78AF905210A48E3
:1024D000FFF716FB08B1FEF783F9074805210A301C
:1024E000FFF70EFB002801D0FEF77AF90EBD0000C1
:1024F000A02A000029240000B4000020054810B5DF
:102500000078FFF7C7FA002803D0BDE81040FEF7B7
:1025100067B910BD000000203EB5FEF785FC08B18C
:10252000FEF75EF91E491F4AD1E90301CDE9010119
:1025300003208DF806001A4801A9001DFFF712FCC0
:1025400008B1FEF74DF9164C241D2068D0F810058F
:102550000021C2B21448FDF7E3FE02460020014606
:10256000009001232046FFF7E7FB2046FFF7D6FB4C
:10257000246804F5A074FFF7A5FB05460B48FFF798
:1025800037FA08B1FEF72CF908482A4621460078A8
:10259000FFF75EFA002801D0FEF722F93EBD0000E9
:1025A0008C2A00008526000000A8610000000020A1
:1025B00070B50D4C0020D2B22070201D0B4D037859
:1025C000EB5C1BB1001DFFF7A1FD02E00C30FFF733
:1025D0009BFC08B1FEF704F96078002802D021784E
:1025E0000029FAD070BD00003C0000200C00002043
:1025F0002DE9F84F074621489146884605681E4652
:10260000012269461846FEF783F9DFF874A060B32B
:10261000009800210446801C0AE000BF00EA050281
:1026200059F821C00AEB8202401C491CC2F80CC0B8
:10263000B142F3D34FEA1749FEF7D4F9611C2940A0
:102640000AEB810149EA00422C40CA600AEB84018E
:10265000C86867F3C50066F3891068F39F2020F00F
:102660000300401C20F00400C8609AF8000001E05C
:10267000FEF796FE0028FBD1BDE8F88F5C00002035
:10268000F8020020704770B50C4605464FF48E7175
:10269000FFF78EF9216AA068415C206A401C206225
:1026A000C5F81C1570BD1FB500228DF800200291E1
:1026B000816801914261D0E90012684690471FBDD0
:1026C0001FB500228DF800200291816801914261BE
:1026D000D0E90012684690471FBD00001FB50A46AA
:1026E00001788DF8001041680191017A8DF8081089
:1026F000C0680390044850F82210083850F822208F
:10270000684690471FBD00001800002001490120C5
:10271000087070473C00002010B588B004462022A5
:102720000E496846FDF710FE06200090C01F01907C
:10273000029003904FF0EB7006900CB1084A00E055
:10274000002269460748FEF77BFB08B1FEF748F810
:102750000448001F447008B010BD0000F42A0000B7
:102760000D270000400000202DE9FF470C460546DC
:102770004FF40071FFF722F901274FF4017800268A
:1027800018B34FF4927949462846FFF70CF9E0B1A7
:1027900049462846FFF70CF9C5F8088394F8290044
:1027A00000B96F6002208DF80000D5F88004C5F8EC
:1027B00080040390A0690290E0680190A661E66140
:1027C000D4E900126846904728E004212846FFF724
:1027D000F5F818B34FF484712846FFF7E4F8E8B130
:1027E00021462846FFF7F0FD616AA069884215D1AD
:1027F000E06938B1E268616AA0612069E6616662F9
:10280000E06008E094F8290000B96F60C5F808831B
:10281000A661E268616A2046FFF7EFFD4FF48E780B
:1028200041462846FFF7BFF880B16069216A8142BE
:1028300002D294F8280028B341462846FFF7B8F89A
:10284000606918B161692046FFF72DFF4FF4A27847
:1028500041462846FFF7A7F8002818D041462846E9
:10286000FFF7A6F894F8290000B12F60A0690028AE
:102870000DD0A661E268616A04B02046BDE8F04769
:10288000FFF7BBBD21462846FFF7FDFEDEE7BDE8AA
:10289000FF8700001FB50A4601788DF800104168D7
:1028A0000191017A8DF80810C0680390044850F82F
:1028B0002210083850F82220684690471FBD0000BB
:1028C000180000202DE9FF410C464FF49277054691
:1028D0003946FFF779F80026B8B139462846FFF7A0
:1028E00078F802208DF80000D5F88004C5F880043F
:1028F0000390D5F83C050290E0680190A661E6617E
:10290000D4E900126846904723E04FF488773946AF
:102910002846FFF759F8E0B139462846FFF759F83D
:10292000D5F83C15A069884213D1E06960B1E2682E
:10293000D5F8000220F02000C5F80002E069A0618F
:102940002069E661E06001E0A661E2682046FFF7E9
:102950005FFD4FF4A27739462846FFF735F868B196
:1029600039462846FFF735F8A06938B1A661E66117
:10297000D5F83C152046E268FFF74AFD4FF4907603
:1029800031462846FFF720F860B131462846FFF768
:1029900020F80120E860606920B1D5F84C15204688
:1029A000FFF78EFE4FF4AC7631462846FFF70CF861
:1029B00000280ED031462846FFF70BF86069002842
:1029C00007D0D5F84C1504B02046BDE8F041FFF71C
:1029D00077BEBDE8FF8100002DE9F05F8346DDE9A9
:1029E0000A4A994690460D460846012703E000BF73
:1029F000B0FBF8F07F1C4045FAD2B94500D94F46EC
:102A00005FEACA7012D18CB15FEA8A7002D5B9F15F
:102A1000000F01D0202607E0302605E03146584659
:102A2000641EFDF7BBFF0CB1A742F7D35FF00106B0
:102A3000B9F1010F02D9A9F1010903E0B5FBF6F0E4
:102A4000404502D306FB08F6F2E7DFF83C9000BFF2
:102A5000B5FBF6F000FB165519F800105846FDF7C7
:102A60009DFFB6FBF8F6002EF2D15FEACA7009D0DE
:102A7000002C07D0A74205D220215846641EFDF73E
:102A80008DFFF5E7BDE8F09FB42A000001000600C5
:102A9000008000400004000000000006000000006C
:102AA000000000000200000100000000251E0000E0
:102AB00091200000303132333435363738394142D5
:102AC00043444546000000000000000000000000F4
:102AD000000000000000000000000000C42A000008
:102AE000DC2A0000040000003D1300001113000068
:102AF00007130000FFFFFFFFFFFFFFFFFFFFFFFFC8
:102B0000FFFFFFFF00000000000000000000D601F2
:102B100006010000600200207F000000E0020020AB
:102B200000404040404040404040414141414140E0
:102B30004040404040404040404040404040404095
:102B40004005020202020202020202020202020224
:102B50000220202020202020202020020202020229
:102B60000202909090909090101010101010101081
:102B7000101010101010101010101010020202028D
:102B800002028888888888880808080808080808D1
:102B900008080808080808080808080802020202CD
:102BA00040000000212B00007761726E696E6700A3
:102BB00064656275670000001B5B313B33306D005C
:102BC0001B5B306D000000001B5B313B33316D003F
:102BD0001B5B313B33326D001B5B313B33336D008C
:102BE0001B5B313B33346D001B5B313B33356D0078
:102BF0001B5B313B33366D001B5B313B33376D0064
:102C0000696E666F000000006572726F72000000EE
:102C1000505049005052530053414144430000007A
:102C200054494D45520000005541525400000000E7
:102C300055415254450000007077725F6D676D74A6
:102C400000000000756172745F6C6F675F626163A2
:102C50006B656E640000000061707000E02C000085
:102C600000000020B40000003C070000942D00008C
:102C7000B4000020642600004C070000E82A000091
:102C800000000000442C000054000020102C000024
:102C900000000000142C000000000000182C0000B0
:102CA00000000000202C000000000000282C000084
:102CB00000000000302C000000000000382C000054
:102CC00000000000582C00000000030368000020F2
:102CD0006000002068000020A00100201800000013
:102CE00000000000000000000000000000000000E4
:102CF00000000000000000000000000000000000D4
:102D000000000000000000000000000000000000C3
:102D100000000000000000000000000000000000B3
:102D200000000000002000400000000000200040E3
:102D30000000000000000000FF000000FF00000095
:102D40000000000000000000000000000000000083
:102D5000000000000000000000000000082C00003F
:102D6000A82B0000002C0000B02B0000C02B00009E
:102D7000B82B0000C82B0000D02B0000D82B00007F
:102D8000E02B0000E82B0000F02B0000F82B0000E7
:042D90000090D003DC
:0400000500000201F4
:00000001FF
