:020000040000FA
:100000000820002019020000210200002302000045
:100010002502000027020000290200000000000065
:100020000000000000000000000000002B020000A3
:100030002D020000000000002F020000310200002D
:1000400033020000330200003302000033020000DC
:1000500033020000330200003302000033020000CC
:1000600033020000330200003302000033020000BC
:1000700033020000330200003302000033020000AC
:10008000330200003302000033020000330200009C
:10009000330200003302000033020000330200008C
:1000A000330200003302000033020000330200007C
:1000B00033020000330200000000000000000000D6
:1000C000330200003302000033020000330200005C
:1000D000330200003302000033020000330200004C
:1000E0003302000033020000330200000000000071
:1000F0000000000033020000000000003302000096
:1001000000000000000000000000000000000000EF
:1001100000000000000000000000000000000000DF
:1001200000000000000000000000000000000000CF
:1001300000000000000000000000000000000000BF
:1001400000000000000000000000000000000000AF
:10015000000000000000000000000000000000009F
:10016000000000000000000000000000000000008F
:10017000000000000000000000000000000000007F
:10018000000000000000000000000000000000006F
:10019000000000000000000000000000000000005F
:1001A000000000000000000000000000000000004F
:1001B000000000000000000000000000000000003F
:1001C000000000000000000000000000000000002F
:1001D000000000000000000000000000000000001F
:1001E000000000000000000000000000000000000F
:1001F00000000000000000000000000000000000FF
:10020000DFF810D000F01AF800480047F9040000A9
:10021000AFF30080082000200648804706480047CA
:10022000FEE7FEE7FEE7FEE7FEE7FEE7FEE7FEE7A6
:10023000FEE7FEE76102000001020000064C074DE8
:1002400006E0E06840F0010394E8070098471034A6
:10025000AC42F6D3FFF7D8FFB0050000D005000090
:1002600070B54FF080520124D2E94C1000230829C8
:1002700006D1CD06C5F80C31C5F810315E4D2B60A6
:10028000082955D15D4D2D685D4E35605B4D2D1DA6
:100290002D68361D3560594D08352D68361D356081
:1002A000564D0C352D68361D3560544D10352D6872
:1002B000361D3560514D14352D68361D35604F4D56
:1002C00018352D684E4E203635604C4D1C352D6846
:1002D000361D3560494D20352D68361D3560474D3A
:1002E00024352D68361D3560444D28352D68361D62
:1002F0003560424D2C352D68361D35603F4D30350B
:100300002D683F4E403635603C4D34352D68361DE6
:1003100035603A4D38352D68361D3560374D3C35E2
:100320002D68361D3560354D40352D68361D3560DC
:10033000082904D1050002D1334E324D3560082919
:1003400004D1050002D1314EFB253560082908D1C2
:10035000050006D192F858622D4A156866F3030528
:100360001560082904D1020002D12A4D8A012A60B1
:10037000082906D128480168C90702D06FF0010199
:1003800001602648016841F470010160BFF34F8F9E
:10039000BFF36F8F4FF01021D1F80002002803DB6C
:1003A000D1F80402002822DA1D4A14601D480468AE
:1003B000002CFCD01224C1F800420568002DFCD0AE
:1003C000C1F8044201680029FCD0136001680029CB
:1003D000FCD0BFF34F8F11487C380168124A01F4FA
:1003E000E06111430160BFF34F8F00BFFDE710498B
:1003F0000E48086070BD000038050040040400107D
:1004000020C50040488103008C56004018F500408C
:10041000E40E0040409602400004004088ED00E0F9
:1004200004E5014000E401400400FA050090D00317
:100430000000002002E008C8121F08C1002AFAD1FB
:1004400070477047002001E001C1121F002AFBD154
:10045000704700002DE9FC410646C0074FF000053B
:100460000ED0104F00240122385D00950023114664
:10047000019500F059F8641C042CF4D300F032F814
:10048000B0070DD5074E0024361D0022305D032332
:1004900000951146019500F047F8641C042CF4D334
:1004A000BDE8FC81A6050000094908B5085C00907C
:1004B000684600F053F8D0F80425009B01219940CC
:1004C00021EA0203C0F808351140C0F80C1508BD38
:1004D000A60500000249085C012100F04DB80000AB
:1004E000A605000010B500242046FFF7F3FF641CAA
:1004F000042CF9D310BD00000120FFF7ABFF094C1D
:100500004FF4FA784FF47A4700263046FFF7CCFFD5
:100510004546611C384688476D1EFAD1761C042E6C
:10052000F3DBF1E7A00500002DE9FF411C46DDE902
:100530000A7815460E46684600F010F846EA45016E
:1005400041EA840141EA072242EA0841009A00EBAD
:100550008200C0F80017BDE8FF8100000168202973
:1005600002D24FF0A040704701F01F010160014826
:10057000704700000003005038B501240090684621
:1005800031B1FFF7EBFF00998C40C0F8084538BD4A
:10059000FFF7E4FF00998C40C0F80C4538BD00001F
:1005A0000338FDD870470D0E0F100B0C1819000002
:1005B000D00500000000002004000000340400000A
:1005C000D4050000040000200420000044040000C2
:0405D0000090D003C4
:0400000500000201F4
:00000001FF
